:020000040800F2
:1000000058080020B5010008F5250008ED25000876
:10001000F125000871020008D92A0008000000003C
:10002000000000000000000000000000FD250008A6
:100030008D02000800000000F925000801260008D4
:10004000CF010008CF010008CF010008CF01000850
:10005000CF010008CF01000891020008A5020008A6
:10006000CF010008CF010008B9020008CF01000845
:100070007502000881020008CF010008CF010008C6
:10008000CF010008CF010008CF010008CF01000810
:10009000CF010008CF010008CF010008CD02000801
:1000A000CF010008CF010008CF010008CF010008F0
:1000B00009260008CF010008CF010008CF01000881
:1000C000CF010008CF010008CF010008CF010008D0
:1000D000CF010008CF010008CF010008CD2A000899
:1000E000CF010008CF010008CF01000800F002F89E
:1000F00000F050F814A696E8000CB244B344DA4578
:1001000001D100F047F8BAE80F000FA696E83000DA
:10011000A5EB040504EB0607AAEB0704A7F101070A
:100120004FEA15154FEA3414A4F10104AC4201D38F
:1001300000F030F813F0010F18BFFB1A43F0010371
:1001400000F001F8DBE71847E4380000043900004C
:10015000103A24BF78C878C1FAD8520724BF30C8F3
:1001600030C144BF04680C60704700007047000055
:100170000023002400250026103A28BF78C1FBD8B0
:10018000520728BF30C148BF0B6070471FB51FBD65
:1001900010B510BD00F031F81146FFF7F7FF02F07F
:1001A000B3FC00F04FF803B4FFF7F2FF03BC00F01C
:1001B00057F800000948804709480047FEE7FEE776
:1001C000FEE7FEE7FEE7FEE7FEE7FEE7FEE7FEE707
:1001D00004480549054A064B7047000005260008FB
:1001E000ED000008580200205808002058040020A4
:1001F00058040020704770477047754600F02CF88F
:10020000AE4605006946534620F00700854618B003
:1002100020B5FFF7DDFFBDE820404FF000064FF0AE
:1002200000074FF000084FF0000BAC46ACE8C009E7
:10023000ACE8C009ACE8C009ACE8C00921F007018E
:100240008D46704710B50446AFF300802046BDE8E8
:100250001040FFF7A8BF00000048704730000020A2
:1002600001491820ABBEFEE72600020070470000DF
:10027000FEE7000040F23810C2F2000000F0B6B80D
:1002800040F2F400C2F2000000F0B0B87047000085
:1002900040F2A001C2F200010869421C01200A617B
:1002A00000F008BA40F2A001C2F200010869421C45
:1002B00002200A6100F0FEB940F2A001C2F2000182
:1002C0004869421C10204A6100F0F4B940F2A001D4
:1002D000C2F200014869421C20204A6100F0EAB9DC
:1002E000EFF3108072B600BFFEE70000014690F801
:1002F0002100022816D10868D1E90FC3026822F054
:100300000E020260026822F001020260012000FA7F
:1003100003F2CCF8042081F821000020002281F8AB
:1003200020207047042088630120002281F82020CB
:100330007047000090F82110022923D1026840F292
:10034000040C1168C4F2020C21F00E011160136854
:100350002F21C4F202018A4223F00103136015DD4C
:100360003023C4F202039A421CD04423C4F2020395
:100370009A421BD05823C4F202039A421CD14FF474
:10038000803321E004218163012070470823C4F2F7
:1003900002039A420ED01C23C4F202039A420BD1EC
:1003A000102311E04FF480730EE000BF4FF4805330
:1003B0000AE000BF012307E00CF168014FF08073F1
:1003C0008A4208BF4FF480130121CCF8003080F836
:1003D0002110416B0022002980F8202004BF00205A
:1003E000704780B58847002080BD000010B5D0E977
:1003F0000FCE0168DCF800300A6823FA0EF35C07C0
:100400002AD512F0040427D00A68920603D40A6899
:1004100022F004020A602F22C4F20202914240F24A
:100420000402C4F202025BDD3023C4F202039942EB
:1004300072D04423C4F20203994273D05823C4F209
:100440000203994240F07A804FF480231360C16A1E
:10045000002940F098806FE09C0727D512F0020435
:1004600024D00A68920606D40A6822F00A020A60BA
:10047000012280F821202F22C4F20202914240F290
:100480000402C4F202023BDD3023C4F202039942AB
:1004900060D04423C4F2020399425FD05823C4F2CF
:1004A0000203994260D14FF4003365E01B0743D546
:1004B00012F0080208BF10BD0A6822F00E020A609E
:1004C000012101FA0EF2CCF80420816380F821109A
:1004D000016B0022002980F8202054D12CE000BFBD
:1004E0000823C4F20203994222D01C23C4F202035F
:1004F000994223D140231360C16A002943D11BE0F4
:100500000823C4F2020399422CD01C23C4F2020334
:10051000994229D120232FE04FF480631360C16AF0
:1005200089BB09E04FF480431360C16A59BB03E003
:1005300004231360C16A31BB10BD00BF02F168041F
:100540004FF08063A14208BF4FF480031360C16A7B
:10055000C9B9F1E74FF400730EE000BF4FF4005348
:100560000AE000BF022307E002F168044FF00073C5
:10057000A14208BF4FF400131360816A00220029D2
:1005800080F82020D8D0BDE8104008470146002858
:100590004FF0010008BF70472DE9F043D1F800C0CB
:1005A0004FF6F873CBF6FD734CF6CD426344CCF6B0
:1005B000CC42A3FB02236FF0030202EA9302002362
:1005C000C4F2020301F10C08C1E90F320222D1E9A1
:1005D000019E98E8F00181F82120DCF8002043F624
:1005E000F0739A4342EA090242EA0E0222432A4386
:1005F00032433A4342EA0802CCF8002000228A63E0
:1006000081F8210081F820200020BDE8F0437047E8
:1006100090F820C0BCF1010F04BF02207047F0B574
:100620004FF0010E80F820E090F821C0BCF1010FDE
:1006300026D14FF0020C80F821C04FF0000CC0F81A
:1006400038C0D0E900C4C56AC66BDCF80070102C55
:1006500027F00107CCF80070006C0EFA00F0706013
:100660000846CCF8043004BF10460A46CCF808000F
:10067000CCF80C20DCF8000045B140F00E000DE095
:10068000002180F820100220F0BD00BF20F00400FF
:10069000CCF80000DCF8000040F00A00CCF80000C4
:1006A000DCF8000040F00100CCF800000020F0BDB4
:1006B0007047000040F21441C4F201010A6802428E
:1006C00014BF08607047FFF7F3BF00002DE9F04F3B
:1006D00082B00E68002E00F0FD8041F20042C4F2AC
:1006E0000102042340F2004E904208BF03234FF65C
:1006F000FF7CC4F2010E009300240123C1F2100C10
:100700004FF0000A4FF000094BE000BF41F2000239
:10071000C4F20102009F904208BF022704F00C03BC
:100720000F229A402BEA020207FA03F34FEA9A05D6
:100730001A4346F825204E6840F20C45F202DEF8D6
:10074000082054BF22EA080242EA0802C4F2010566
:10075000CEF808202A68B30254BF22EA080242EA0F
:1007600008022A60B303DEF8042054BF22EA08021C
:1007700042EA0802F303CEF80420DEF800204FF02E
:10078000010354BF22EA080242EA0802CEF8002020
:100790000E680AF1010A36FA0AF204F1040400F0C4
:1007A000998003FA0AFB16EA0B08F1D04E686645F9
:1007B00012DC122E56D8DFE806F0350B4D495555A0
:1007C000555555555555555555555545510000BF2D
:1007D000D1F80C9046E000BF4FF6FF72C1F2210243
:1007E00096420FDC0022C1F2110296421AD000227A
:1007F000C1F21202964215D00022C1F221029642A5
:1008000010D02FE00022C1F2220296420AD000222C
:10081000C1F23102964205D00022C1F23202964264
:1008200020D100BF8A684AB1012A14BFC0F814B0B1
:10083000C0F810B04FF0080914E000BF4FF00409F1
:1008400010E000BFCA6802F104090BE04FF0000994
:1008500008E000BFCA6802F1080903E0CA6802F1B3
:100860000C0900BF02462646B8F5807F24BF04323B
:10087000203E17680F25B54027EA050509FA06F658
:1008800035431560CA79D2067FF582AF41F218036D
:10089000C4F202031A68AEF57E7642F001021A60D5
:1008A0001A6802F001020192019A2AF0030256F836
:1008B00002B040F60002C4F20102904208D040F6B5
:1008C0000042C4F2010290427FF420AF012725E7E5
:1008D000002723E702B0BDE8F08F0000002A08BF20
:1008E000090401617047000040F25420C2F2000088
:1008F0000068704740F2240040F25421C2F2000028
:10090000C2F2000100780A681044086070470000D5
:1009100080B542F20000C4F20200016841F010010B
:100920000160032000F08CF80F2000F005F800F0C3
:1009300027F8002080BD000070B540F22406C2F206
:10094000000640F22C013278C2F200014FF47A73B3
:100950000968B3FBF2F20446B1FBF2F1084600F07D
:1009600085FB0F2C4FF0010508D838B94FF0FF3048
:1009700021460022002500F037F87460284670BD3B
:1009800082B041F21800C4F202000168022241F074
:1009900001010160016801F00101019101994168C3
:1009A00041F080514160406800F080500090009814
:1009B0000420C4F20100016862F31A61016002B010
:1009C00070470000002848BF704700F01F01012257
:1009D00002FA01F11C2202EAD0004EF20012CEF21D
:1009E000000281507047000010B54EF60C5CCEF24C
:1009F000000CDCF80030C3F3022E8EF00704042C48
:100A000028BF0424BEF103034FF0FF3E0EFA04F4A6
:100A100038BF0023A14399400EFA03F39A431143D0
:100A200000F00F0200F160430901043A03F564434A
:100A30006244002848BF02F10C03197010BD000089
:100A40004EF60C51CEF200010A684FF6FF031A4031
:100A500060F30A2242F0806040F0FD700860704749
:100A6000002804BF012070472DE9F04381B042F215
:100A70000008C4F202080446D8F800000D4600F051
:100A8000070081420CD9D8F8000020F00700284365
:100A9000C8F80000D8F8000000F00700A8426CD1A8
:100AA000206841F204098107C4F2020917D5410701
:100AB00005D5D9F8001041F4E061C9F8001001072C
:100AC00005D5D9F8001041F46051C9F80010D9F8E3
:100AD0000010A26821F0F0011143C9F80010C0070E
:100AE00042D1D8F8000000F0070085420CD2D8F8B7
:100AF000000020F007002843C8F80000D8F80000E4
:100B000000F00700A84238D12068410707D5D9F87E
:100B10000010E26821F4E0611143C9F800100007F9
:100B200008D5D9F80000216920F4605040EAC100DE
:100B3000C9F80000D9F8002002F00C00082841F2A2
:100B40000020C0F27A004DD143F61C23C2F383414A
:100B5000C0F60003595CD20338D440F60010C0F24E
:100B60003D0048433EE000BF606859F8041C02287D
:100B700008D0012826D1890306D4012001B0BDE8A0
:100B8000F08300BF8901F8D5D9F8001021F00301E6
:100B90000843C9F80000FFF7A7FE064641F2883770
:100BA000D9F80000616800F00C00B0EB810F98D01C
:100BB000FFF79AFE801BB842F2D9032001B0BDE8CE
:100BC000F08300BF8907D8D5DEE700BFD9F8002041
:100BD00043F61A23C2F34042C0F600039A5C48432E
:100BE000B0FBF2F0D9F8001043F60222C1F3031172
:100BF000C0F60002515C40F22C0220FA01F140F2F2
:100C00002800C2F200000068C2F200021160FFF783
:100C100093FE002001B0BDE8F083000040F22C00FC
:100C200041F20401C2F20000C4F202010068096846
:100C300043F61222C1F30221C0F60002515CC84003
:100C40007047000040F22C0041F20401C2F20000A3
:100C5000C4F202010068096843F61222C1F3C221FE
:100C6000C0F60002515CC84070470000002804BF75
:100C7000012070472DE9F04182B00446007841F22E
:100C80000006C007C4F202060CD0706800F00C0029
:100C9000042840F081803068800303D56068002814
:100CA00000F04681207880071BD5706810F00C0F8B
:100CB00009D0706800F00C00082840F08780706848
:100CC000C00300F183803068800703D520690128C4
:100CD00040F02E813068616920F0F80040EAC100E0
:100CE00030602078000713D4207840072CD4E569C1
:100CF000002D00F01881706800F00C00082840F00A
:100D0000A780012D40F00481012002B0BDE8F081F0
:100D1000A069002800F084800020C4F24220012154
:100D2000C0F88014FFF7E0FD054600BF706A800739
:100D300000F1B280FFF7D8FD401B0228F6D903204E
:100D400002B0BDE8F08100BFF0695FEAC00808D4D6
:100D5000F06940F08050F061F06900F08050009040
:100D6000009847F20007C4F200073868C00549D46C
:100D7000386840F480703860FFF7B6FD054600BF64
:100D80003868C0053ED4FFF7AFFD401B6428F7D993
:100D9000032002B0BDE8F081706800F00C00082864
:100DA00003D17068C0033FF576AF616830680029F1
:100DB00000F00C81B1F5A02F00F00081B1F5803F6B
:100DC00040F01A8140F480301CE100BF2069002807
:100DD00040F20000C4F2422000F08880012101604E
:100DE000FFF782FD054600BF306880073FF572AF10
:100DF000FFF77AFD401B0228F6D9032002B0BDE8B8
:100E0000F08100BFE168306A002900F09D8005296B
:100E100000F09280012940F0AF8040F00100B1E085
:100E20000020C4F242200021C0F88014FFF75CFDCE
:100E3000054600BF706A80077FF556AFFFF754FD87
:100E4000401B0228F6D9032002B0BDE8F08100BFA4
:100E50000027C4F2422700203866FFF745FD022D27
:100E600005460DD13068800140F1DE80FFF73CFD82
:100E7000401B02284FF00300F4D902B0BDE8F08116
:100E8000306880014FD5FFF72FFD401B02284FF03F
:100E90000300F5D9F1E700BF40F22C00C2F20000D8
:100EA000006844F6D351C1F26201A0FB0101480A77
:100EB000019000BF00BF0198411E002801913FF43E
:100EC00013AF00BF0198411E002801913FF40CAF01
:100ED00000BF0198411E002801913FF405AF00BFFB
:100EE0000198411E00280191E4D1FDE60021016036
:100EF000FFF7FAFC054600BF306880077FF5F1AECA
:100F0000FFF7F2FC401B02284FF00300F4D9B4E7CE
:100F10007068216A00F480328A4209D1616A00F463
:100F20007010884204D1002002B0BDE8F08100BFFB
:100F3000012002B0BDE8F08140F004003062306A68
:100F400040F001001EE000BF20F001003062306A76
:100F500020F004003062FFF7C7FC054641F28837F5
:100F6000306A800720D5FFF7BFFC401BB8424FF026
:100F70000300F5D981E700BF20F001003062306A3C
:100F800020F004003062FFF7AFFC054641F28837DD
:100F9000306A800708D4FFF7A7FC401BB842F7D996
:100FA000032002B0BDE8F081B8F1000F3FF59FAE1D
:100FB000F06920F08050F06199E600BF40F4802095
:100FC0003060306840F480301CE000BF20F4803096
:100FD0003060306820F480203060FFF785FC0546E3
:100FE000306880037FF55EAEFFF77EFC401B64280F
:100FF0004FF00300F4D940E720F4803030603068CF
:1010000020F480203060FFF76FFC054630688003D5
:101010003FF548AEFFF768FC401B6428F6D9032073
:1010200002B0BDE8F08100BF206AB0F5803F05D175
:101030007168A26821F40031114371607168626ABD
:1010400021F4741111430843706001203866FFF7E2
:101050004BFC0446306880013FF565AFFFF744FC68
:10106000001B02284FF00300F4D906E7411E0020C0
:10107000B0EB116F1CBF012070474EF21002CEF290
:10108000000251604EF62351CEF20001F0230B70A6
:1010900007219060116070477047000070470000A2
:1010A00090F83C20012A04BF02207047B0B501F13E
:1010B00008053CCDD1E900CE23F47C5322F47052D4
:1010C0001A432EF4F0431A432CF4E0431A4324F459
:1010D000C0431A432A43C96922F48042036811437A
:1010E0005964002180F83C100020B0BD90F83C20ED
:1010F000012A4FF0020236D010B580F83D20026878
:10110000D2F804E0D2F808C00C682EF07003234334
:1011100040F2FF74C4F20004A24253600ADCB2F150
:10112000804F13D040F20043C4F200039A420DD026
:1011300011E000BF42F60043C4F201039A4205D019
:1011400040F60003C4F200039A4204D149682CF02F
:101150008003194391600121002280F83D1080F83E
:101160003C20BDE81040104670470000002804BF36
:101170000120704710B590F83D1031B9002180F87A
:101180003C10044600F070F82046022180F83D1023
:10119000016840F2FF740B68C4F2000442F6004C90
:1011A000A142C4F2010C15DCB1F1804F1AD040F21B
:1011B0000042C4F20002914214D0A14218DCB1F105
:1011C000804F1DD040F20042C4F20002914217D07D
:1011D0001AE000BF614505D040F60002C4F20002EB
:1011E0009142EAD1826823F070031343A142E6DD05
:1011F000614505D040F60002C4F20002914203D1DD
:10120000026923F440731343846923F08002D0F809
:1012100004E0C368224361450A60CB62C1F828E05C
:1012200002D14269CCF8302001224A610B69DB0708
:1012300003D00B6923F001030B6180F8462080F88E
:101240003E2080F83F2080F8402080F8412080F840
:10125000422080F8432080F8442080F8452080F820
:101260003D20002010BD00000068B0F1804F18BF85
:10127000704780B582B041F21C00C4F202000168E0
:10128000002241F0010101600068012100F001002D
:10129000019001981C20FFF7A7FB1C2002B0BDE8BD
:1012A0008040FFF78FBB000090F83D1001291CBF64
:1012B00001207047022180F83D10006840F2FF7263
:1012C000C168C4F20002904241F00101C16009DC32
:1012D000B0F1804F12D040F20041C4F200018842C8
:1012E0000CD012E042F60041C4F20101884205D060
:1012F00040F60001C4F20001884206D1816801F085
:101300000701062904BF00207047016841F0010170
:10131000016000207047000090F83C20012A4FF047
:1013200002026CD080B580F83D20D0F800C04FF6A6
:101330007772DCF8083023EA0202CCF808200B6848
:101340004F2B29DC1F2B45DD202B46D0302B44D0E2
:10135000402B40F0AF80D1F804E0C968DCF82030C1
:10136000DCF8202022F00102CCF82020DCF8182044
:1013700022F0F00242EA011123F00A0242EA0E02D0
:10138000CCF81810CCF82020DCF8081041F0470108
:1013900021F0300128E000BF6F2B33DDB3F5005F93
:1013A00074D0B3F5805F21D0702B40F08380D1E9F9
:1013B00001E3C968DCF8082043EA0E0322F47F4207
:1013C00043EA01211143CCF80810DCF8081041F081
:1013D000770109E00BB1102B6CD1DCF8081021F07B
:1013E0007001194341F00701CCF8081000220121D7
:1013F00080F83D10002180F83C10BDE88040104688
:10140000704700BF502B21D0602B53D1D1F804E09E
:10141000C968DCF82030DCF8202022F01002CCF87B
:101420002020DCF8182022F4704242EA013123F037
:10143000A00242EA0E12CCF81810CCF82020DCF8FA
:10144000081041F0670121F01001CDE7D1F804E068
:10145000C968DCF82030DCF8202022F00102CCF84A
:101460002020DCF8182022F0F00242EA011123F0DB
:101470000A0242EA0E02CCF81810CCF82020DCF860
:10148000081041F0570121F02001ADE7D1E901E357
:10149000C968DCF8082043EA0E0322F47F4243EADD
:1014A00001211143CCF80810DCF8081041F4804108
:1014B0009AE700BF01229AE77047000070B5044622
:1014C0000068C5680669B10716D515F0020113D08A
:1014D0006FF002010161012121778069800703D04B
:1014E0002046FFF7E9FF05E0204600F0BBF8204664
:1014F00000F052FA00202077700719D515F004008B
:1015000016D020686FF00401016102212177806903
:1015100010F4407F04D02046FFF7CEFF06E000BF66
:10152000204600F09FF8204600F036FA0020207791
:10153000300717D515F0080014D020686FF00801A7
:10154000016104212177C069800703D02046FFF79D
:10155000B3FF05E0204600F085F8204600F01CFAB5
:1015600000202077F00619D515F0100016D020685D
:101570006FF01001016108212177C06910F4407FEC
:1015800004D02046FFF798FF06E000BF204600F099
:1015900069F8204600F000FA00202077F00718BF15
:1015A00015F0010002D1300609D412E020686FF076
:1015B00001010161204600F05FFA300609D515F0FF
:1015C000800006D020686FF0800101612046FFF79F
:1015D00063FD700609D515F0400006D020686FF055
:1015E00040010161204600F0D3FAB00658BF70BD3B
:1015F00015F0200008D021686FF0200220460A6113
:10160000BDE87040FFF74ABD70BD000080B586B0F0
:10161000014640F60000C4F20100096800F51052CE
:1016200091424FF00001CDE90411CDE9021101D042
:1016300006B080BD41F21801C4F202010A6842F00E
:1016400004020A60096801F00401019101994FF454
:101650007061029102210391059102A9FFF736F80A
:1016600006B080BD7047000090F83C30012B04BFED
:10167000022070474FEAB202032A00F2F1802DE9FE
:10168000F043DFE802F003A53B7500BF036842F6B4
:1016900000461D6A1A6AC4F2010622F001021A62AB
:1016A0001A465C6852F818CFB3428E68D1F800E051
:1016B00025F0020545EA06050CD1CE68D1E905788A
:1016C00024F4407425F00C0526F004063C43354311
:1016D00044EA08042CF0730747EA0E075C609F6138
:1016E0004F6809695F631D629F6947F008079F6142
:1016F0009F6927F004079F61A6E000BF036842F6D8
:1017000000461D6A1A6AC4F2010622F480721A6247
:101710001A46D3F804C052F81CEFB3428E680C6826
:1017200025F4007545EA06250FD1CE68D1E9059864
:10173000360240F2FF4725F44065BE4335432CF4A2
:10174000405748EA090647EA061C2EF0730727436C
:10175000C3F804C0DF614F680969DF631D62DF6998
:1017600047F00807DF61DF6927F00407DF616BE0FE
:10177000036842F60047D3F820C01A6AC4F2010792
:1017800022F480521A621A465C6852F81C5FD1F843
:1017900000E08E68BB4204D14F6924F4804444EADF
:1017A00087142CF4005747EA063725F4E64646EA44
:1017B0000E265C60DE614E6809691E641F62DF6987
:1017C00047F40067DF61DF6927F48067DF613AE093
:1017D000036842F600461D6A1A6AC4F2010622F046
:1017E00010021A621A46D3F804C052F8184FB342D6
:1017F0008E68D1F800E025F0200545EA06150FD1E6
:10180000CE68D1E905986FF0400725F0C00507EADA
:10181000061635432CF4406748EA090647EA860C69
:1018200024F4E64444EA0E27C3F804C09F614F68DD
:1018300009699F631D629F6947F400679F619F6903
:1018400027F480679F610902136819431160002122
:10185000BDE8F043002280F83C200846704700BFF6
:101860000121002280F83C2008467047002804BF70
:101870000120704710B590F83D1031B9002180F873
:101880003C10044600F070F82046022180F83D101C
:10189000016840F2FF740B68C4F2000442F6004C89
:1018A000A142C4F2010C15DCB1F1804F1AD040F214
:1018B0000042C4F20002914214D0A14218DCB1F1FE
:1018C000804F1DD040F20042C4F20002914217D076
:1018D0001AE000BF614505D040F60002C4F20002E4
:1018E0009142EAD1826823F070031343A142E6DDFE
:1018F000614505D040F60002C4F20002914203D1D6
:10190000026923F440731343846923F08002D0F802
:1019100004E0C368224361450A60CB62C1F828E055
:1019200002D14269CCF8302001224A610B69DB0701
:1019300003D00B6923F001030B6180F8462080F887
:101940003E2080F83F2080F8402080F8412080F839
:10195000422080F8432080F8442080F8452080F819
:101960003D20002010BD0000006842F60041C4F296
:101970000101884218BF704781B041F21800C4F2DB
:101980000200016841F400610160006800F4006039
:101990000090009801B0704770470000C1B1042961
:1019A00008D0082914BF41224022825C012A05D0B8
:1019B00016E000BF3F22825C012A11D102220829D1
:1019C00010D0042914BF80F8412080F83F200BE09C
:1019D00090F83E20012A03D1022280F83E2003E045
:1019E0000120704780F84020006801F01F010122AB
:1019F000036A8A4023EA02010162036A42F6444113
:101A0000C4F201011A43A1F14403984202620FD0CB
:101A100040F2FF71C4F20001884213DCB0F1804F44
:101A20001CD040F20041C4F20001884216D01CE0F4
:101A30000A6842F400420A6040F2FF71C4F20001F9
:101A40008842EBDD42F60041C4F20101884205D034
:101A500040F60001C4F20001884206D1816801F01D
:101A60000701062904BF00207047016841F0010109
:101A700001600020704700000068B0F1804F18BF7F
:101A800070472DE9F04782B040F2A006C2F200068E
:101A90003069B46A756B01F0F7FD0146284601F024
:101AA0006FFE0546B0604FF0000920460021C6F8E1
:101AB000109001F0C4FC40F2000A40F27C18C2F21F
:101AC000000AC2F2000888B10AF1040C9CE80C106C
:101AD000376B84F000402946CDE900C701F08EFB4A
:101AE000D8F800200146506300200FE00AF1040CF2
:101AF0009CE80C10376B20462946CDE900C701F061
:101B00007DFBD8F800200146C2F8349090637069DC
:101B1000F46A756B718001F0B7FD0146284601F04B
:101B20002FFE0546F0604FF0000920460021C6F860
:101B3000149001F084FC88B10AF1100C9CE80C10A0
:101B4000376B84F000402946CDE900C701F0A4FBC3
:101B5000D8F800200146D06300200FE00AF1100CF5
:101B60009CE80C10376B20462946CDE900C701F0F0
:101B700093FBD8F800200146C2F83C901064B18075
:101B800070780130707002B0BDE8F0477047000017
:101B9000704700007047000070470000B0B582B089
:101BA00001680A68CC684B6902F02F05202D04F00B
:101BB000200505D125B102B0BDE8B04000F006BF58
:101BC0005FEA027C1EBF03F0010E04F4907313EB76
:101BD0000E0341D1036BD50618D5012B16D114F095
:101BE000100313D0002201920A6801924A68019200
:101BF000019A496949064BD4818DC28DC38D002B52
:101C000018BF914240F0F48102B0B0BD13062DD54B
:101C100014F080032AD090F84120212AF4D1826860
:101C2000B2F5805F03D10269002A00F06782026A80
:101C3000531C036212784A60C28C013A1304C284B6
:101C4000E2D1C86820F08000C860C86840F0400059
:101C5000C86002B0B0BD00BFD30718BF14F48073D2
:101C600040F0D080530700F1D380D8E05206CBD5A6
:101C700014F04002C8D0CA6822F04002CA60202195
:101C800080F8411002B0BDE8B04000F09DBC00BF3C
:101C9000C16B0A68526893B2002BB5D0858DAB42F8
:101CA000B2D2C2858969202900F0A180016851E87B
:101CB000031F026821F4807142E80313DBB101685D
:101CC00051E8031F026821F4807142E8031393B1C5
:101CD000016851E8031F026821F4807142E8031390
:101CE0004BB1016851E8031F026821F4807142E89A
:101CF0000313002BDAD1016851E8051F026821F0B7
:101D0000010142E80513C3B3016851E8051F0268E9
:101D100021F0010142E805137BB3016851E8051F7A
:101D2000026821F0010142E8051333B3016851E86C
:101D3000051F026821F0010142E80513002BDAD1EA
:101D40001BE000BF016851E8051F026821F0400157
:101D500042E80513DBB1016851E8051F026821F074
:101D6000400142E8051393B1016851E8051F02687C
:101D700021F0400142E805134BB1016851E8051F0D
:101D8000026821F0400142E80513002BDAD120213E
:101D900080F8421000210163016851E8031F0268C6
:101DA00021F0100142E80313DBB1016851E8031F81
:101DB000026821F0100142E8031393B1016851E871
:101DC000031F026821F0100142E803134BB10168C0
:101DD00051E8031F026821F0100142E80313002BB1
:101DE000DAD1C16B04460846FEF780FA204602218C
:101DF0004163818DC28D891A89B202B0BDE8B040BD
:101E0000FFF7C8BE436C43F001034364530706D594
:101E1000BEF1000F03D0436C43F002034364930709
:101E200006D5BEF1000F03D0436C43F004034364B6
:101E3000BCF1000F06D55EEA050303D0436C43F006
:101E400008034364436C002B3FF4DEAE920605D5D5
:101E500025B1044600F0BAFD216820464969426C6C
:101E600001F0400102F00802891800F0B98000BFBB
:101E7000016851E8031F026821F4907142E80313DE
:101E8000BBB3016851E8031F026821F4907142E876
:101E9000031373B3016851E8031F026821F49071C2
:101EA00042E803132BB3016851E8031F026821F4D1
:101EB000907142E80313002BDAD11AE0016851E86F
:101EC000051F026821F0010142E80513DBB101683A
:101ED00051E8051F026821F0010142E8051393B1A2
:101EE000016851E8051F026821F0010142E805136D
:101EF0004BB1016851E8051F026821F0010142E879
:101F00000513002BDAD1016B012924D1016851E8B6
:101F1000031F026821F0100142E80313DBB10168DE
:101F200051E8031F026821F0100142E8031393B146
:101F3000016851E8031F026821F0100142E8031311
:101F40004BB1016851E8031F026821F0100142E81B
:101F50000313002BDAD1202180F842100021016305
:101F600001684969490640F1C380016851E8051FCD
:101F7000026821F0400142E80513DBB1016851E835
:101F8000051F026821F0400142E8051393B1016882
:101F900051E8051F026821F0400142E805134BB1EA
:101FA000016851E8051F026821F0400142E805136D
:101FB000002BDAD1C16B002900F09A8042F2156241
:101FC000C0F60002044608464A63FEF7B3F900284B
:101FD0003FF41AAEE06B416B02B0BDE8B040084779
:101FE0000446FFF7D9FD0020606402B0B0BD00BF19
:101FF000891A00BF026852E8032F036822F4907226
:1020000043E80325BDB3026852E8032F036822F4B6
:10201000907243E8032575B3026852E8032F036802
:1020200022F4907243E803252DB3026852E8032F8F
:10203000036822F4907243E80325002DDAD11AE0F8
:10204000026852E8052F036822F0010243E80525E3
:10205000DDB1026852E8052F036822F0010243E86F
:10206000052595B1026852E8052F036822F00102A8
:1020700043E805254DB1026852E8052F036822F0B8
:10208000010243E80525002DDAD1202280F8422004
:1020900000220263026852E8032F036822F0100254
:1020A00043E80325DDB1026852E8032F036822F0FC
:1020B000100243E8032595B1026852E8032F036834
:1020C00022F0100243E803254DB1026852E8032FC5
:1020D000036822F0100243E80325002DDAD1022222
:1020E00089B2426302B0BDE8B040FFF753BD00BF04
:1020F00002B0BDE8B040FFF74FBD00BF026A32F842
:10210000023B6FF35F234B60026295E5002804BF3A
:102110000120704710B5044690F8410028B900200E
:1021200084F84000204600F063F8242084F8410041
:102130002068D4E90212C36823F40053C360036922
:1021400023F440531A430261D4E904231143C268C3
:10215000194341F20C639A431143C1604169A2697A
:1021600021F44071114343F60002C4F2010290428F
:10217000416103D0FEF752FD02E000BFFEF762FDB1
:10218000D4E90023192148439900B0FBF1F048F24B
:102190001F5CC5F2EB1CA0FB0C314FF69C73490988
:1021A000C0F6FF7301FB0300322303EB0010A0FB1A
:1021B0000C03F02000EA531000EB0110C3F34311AD
:1021C000084490601069202120F49040106150690B
:1021D00020F02A005061D06840F40050D060002008
:1021E000606484F8411084F84210606310BD000000
:1021F0002DE9F04385B040F600450446C4F20105E0
:102200000068A5F54441002788420497CDE902778C
:10221000019703D005B0BDE8F08300BF41F218007C
:10222000C4F20200416801AE41F48021416041687E
:1022300040F21C0801F48021009100990168C4F269
:10224000020841F0080101600068314600F0080012
:10225000009000984FF480600190022002900320CB
:1022600004902846FEF732FA4FF40060CDE90107EA
:10227000284631460397FEF729FA40F23815C2F294
:102280000005102080264FF48059C5E900802846BB
:10229000C5E90276C5E90477C5E90679FEF776F95E
:1022A000002818BFFEF71CF8A5636C6240F2F40525
:1022B00008F11400C2F200050021C5E9000128461A
:1022C000C5E90216C5E90411C5E90619FEF75EF96C
:1022D000002818BFFEF704F8272002210022E5633A
:1022E0006C62FEF781FB2720FEF76CFB05B0BDE8B2
:1022F000F083000090F84230202B0BD194460A4620
:1023000000294FF0010118BFBCF1000F06D10846AB
:10231000704700BF02210846704700BF70B582B009
:102320000025222105638262A0F82CC0456480F854
:1023300042100168C36B42F29D7442F6FD0E42F2F8
:102340002166C0F60004C0F6000EC0F60006C3E920
:102350000A4EC3E90C650431044618466346FEF78D
:1023600057F90195216820460A6801924968019150
:102370000199216931B300BF016851E8031F026868
:1023800041F4807142E80313E3B1016851E8031F8F
:10239000026841F4807142E803139BB1016851E87F
:1023A000031F026841F4807142E8031353B10168CE
:1023B00051E8031F026841F4807142E80313002BC7
:1023C000DAD100BF016851E8051F026841F0010140
:1023D00042E80513BBB3016851E8051F026841F0EC
:1023E000010142E8051373B3016851E8051F026853
:1023F00041F0010142E805132BB3016851E8051FC4
:10240000026841F0010142E80513002BDAD11AE01D
:10241000016851E8051F026841F0400142E80513D8
:10242000DBB1016851E8051F026841F0400142E854
:10243000051393B1016851E8051F026841F040019E
:1024400042E805134BB1016851E8051F026841F0ED
:10245000400142E80513002BDAD1002002B070BD24
:1024600010B540F2A004C2F2000494F83C00FF282A
:102470002ED0AA2838D194F83D00012834D194F800
:102480003E0094F83F1094F8402094F841300844FE
:10249000104494F84210184494F84320084494F8E7
:1024A0004410104494F8452008441044553894F8DA
:1024B0004610C0B24840FF2816D1D4F83E00D4F8E8
:1024C0004210C4E90601FEF70FFAA0630CE000BF5A
:1024D00040F27C10C2F20000006800214163816379
:1024E000C16301640120207040F20C2004F13C0122
:1024F000C2F200000B22BDE81040FFF7FBBE000057
:102500007047000090F84130202B09D194460029F3
:102510004FF0010218BFBCF1000F05D11046704703
:1025200002221046704700BF70B5002221230162CD
:10253000A0F824C0A0F826C0426480F841300468A6
:10254000836B42F6151E42F6C51542F22166C0F6AF
:10255000000EC0F60005C0F60006C3E90AE5C3E9AF
:102560000C62221D044618466346FEF751F82168A6
:1025700020466FF040020A60016851E8051F0268BA
:1025800041F0800142E80513DBB1016851E8051F05
:10259000026841F0800142E8051393B1016851E8F7
:1025A000051F026841F0800142E805134BB1016844
:1025B00051E8051F026841F0800142E80513002B35
:1025C000DAD1002070BD0000006844F60001C4F2BA
:1025D0000001884218BF704740F20000C2F20000BC
:1025E000012101707047000070470000FEE7000005
:1025F000FEE70000FEE700007047000070470000A3
:10260000FEF778B97047000040F2C410C2F2000033
:10261000FEF754BF406A0021C185C184FFF7BCBAF0
:10262000406A01684A6990F84130212B2DD112F09F
:1026300080022AD00021C184016851E8031F02688A
:1026400021F0C00142E80313DBB1016851E8031F28
:10265000026821F0C00142E8031393B1016851E818
:10266000031F026821F0C00142E803134BB1016867
:1026700051E8031F026821F0C00142E80313002B58
:10268000DAD1202180F841100168496990F8422090
:10269000222A40F07D8011F0400179D00021C185CF
:1026A000016851E8031F026821F4907142E80313A6
:1026B000BBB3016851E8031F026821F4907142E83E
:1026C000031373B3016851E8031F026821F490718A
:1026D00042E803132BB3016851E8031F026821F499
:1026E000907142E80313002BDAD11AE0016851E837
:1026F000051F026821F0010142E80513DBB1016802
:1027000051E8051F026821F0010142E8051393B169
:10271000016851E8051F026821F0010142E8051334
:102720004BB1016851E8051F026821F0010142E840
:102730000513002BDAD1016B012924D1016851E87E
:10274000031F026821F0100142E80313DBB10168A6
:1027500051E8031F026821F0100142E8031393B10E
:10276000016851E8031F026821F0100142E80313D9
:102770004BB1016851E8031F026821F0100142E8E3
:102780000313002BDAD1202180F8421000210163CD
:10279000416C41F010014164FFF7FEB90168406AE5
:1027A0000968890600F19F800021C185016851E810
:1027B000031F026821F4807142E80313E3B101684A
:1027C00051E8031F026821F4807142E803139BB1B2
:1027D000016851E8031F026821F4807142E8031385
:1027E00053B1016851E8031F026821F4807142E887
:1027F0000313002BDAD100BF016851E8051F0268FE
:1028000021F0010142E80513BBB3016851E8051F3F
:10281000026821F0010142E8051373B3016851E831
:10282000051F026821F0010142E805132BB301687E
:1028300051E8051F026821F0010142E80513002B51
:10284000DAD11AE0016851E8051F026821F0400161
:1028500042E80513DBB1016851E8051F026821F069
:10286000400142E8051393B1016851E8051F026871
:1028700021F0400142E805134BB1016851E8051F02
:10288000026821F0400142E80513002BDAD1202133
:1028900080F84210016B012925D100BF016851E881
:1028A000031F026821F0100142E80313DBB1016845
:1028B00051E8031F026821F0100142E8031393B1AD
:1028C000016851E8031F026821F0100142E8031378
:1028D0004BB1016851E8031F026821F0100142E882
:1028E0000313002BDAD100214163016B012918BFCA
:1028F000FFF7B6BD818DFFF74DB90000406A012199
:102900004163016B012918BFFFF7FABD818D4908AA
:10291000FFF740B90168406A0968890648BFFFF7B8
:1029200053BE0021C18400BF016851E8051F026841
:1029300021F0800142E8051383B3016851E8051FC7
:10294000026821F0800142E805133BB3016851E8B9
:10295000051F026821F0800142E80513F3B1016808
:1029600051E8051F026821F0800142E80513002BA1
:10297000DAD113E0016851E8031F026841F0400119
:1029800042E80313002B08BF7047016851E8031F9A
:10299000026841F0400142E8031393B1016851E835
:1029A000031F026841F0400142E803134BB1016884
:1029B00051E8031F026841F0400142E80313002B75
:1029C000D8D17047406AFFF70FBE000081B090F881
:1029D0004210222921D183680246B3F5805F09D1D4
:1029E00052F8281F52F8183C002B63D003685B682C
:1029F0000AE000BF52F8281F13B90369002BF5D075
:102A000003685B6803F07F030B701168013111608C
:102A1000C18D01390A04C18502D001B0704700BFE1
:102A20000168CA6822F02002CA60CA6822F4807273
:102A3000CA604A6922F001024A61202180F84210EE
:102A400000214163026B012A3CD10163016851E816
:102A5000031F026821F0100142E80313DBB1016893
:102A600051E8031F026821F0100142E8031393B1FB
:102A7000016851E8031F026821F0100142E80313C6
:102A80004BB1016851E8031F026821F0100142E8D0
:102A90000313002BDAD101680A68D20606D500229A
:102AA00000920A680092496800910099818D01B0F6
:102AB000FFF770B8026852686FF35F2221F8022BAB
:102AC0008162A5E701B0FFF7CBBC000040F20C200B
:102AD000C2F20000FFF762B8FEE700004EF60C50AD
:102AE000BFF34F8FCEF200000168042201F4E061D1
:102AF000C0F2FA5211430160BFF34F8F00BF00BF15
:102B000000BF00BFFAE7000096B0FDF701FF002408
:102B10000120CDE90744CDE90544029006904FF429
:102B200080204FF4803102250B9002A8CDE90314D8
:102B3000CDE90951FEF79AF820B1EFF3108072B693
:102B4000FEE700BF0F20CDE90C054FF48060CDE912
:102B50000F000CA800210E94FDF782FF20B1EFF3C7
:102B6000108072B6FEE700BF41F218090024C4F2DB
:102B70000209CDE90444CDE90244D9F8000041F24C
:102B8000000B40F01000C9F80000D9F80000C4F2B2
:102B9000010B00F010000C900C98D9F800004FF4D5
:102BA000005140F02000C9F80000D9F800000022D0
:102BB00000F020000C900C98D9F800004FF400555C
:102BC00040F00400C9F80000D9F8000000F004004B
:102BD0000C900C98D9F8000040F00800C9F80000EB
:102BE000D9F8000000F008000C900C985846FDF74A
:102BF00075FE0295022002AD012605905846294631
:102C0000CDE90364FDF762FD4FF4404002900327D5
:102C1000584629460397FDF759FD332002900020BE
:102C2000C1F23100CDE90306ABF500663046294616
:102C3000FDF74CFD49F2CC00CDE9020730462946AC
:102C4000FDF744FD4FF2FF30CDE90207ABF58060A0
:102C50002946FDF73BFD062000210022FDF7C4FEBA
:102C60000620FDF7AFFE072000210022FDF7BCFE85
:102C70000720FDF7A7FE0A2000210022FDF7B4FE81
:102C80000A20FDF79FFE172000210022FDF7ACFE71
:102C90001720FDF797FE59F8040C022140F00100BF
:102CA00049F8040C59F8040C002200F001000290CD
:102CB00002980C200C25FDF797FE0C20FDF782FEF4
:102CC0000D2002210022FDF78FFE0D20FDF77AFE78
:102CD00040F20C20ABF54841C2F200004FF4E13263
:102CE00080E81600C0E90344C0E90554C461FFF759
:102CF0000DFA28B1EFF3108072B600BFFEE700BFF7
:102D000040F27C100BF5E056C2F200000B21642269
:102D1000CDE914440894C0E90061C0E90242C0E969
:102D200004448461FEF7A2FD20B1EFF3108072B677
:102D3000FEE700BF40F27C10C2F2000014A9FEF7CB
:102D4000D5F928B1EFF3108072B600BFFEE700BFDF
:102D500060200C900020CDE90D00CDE90F00CDE9F9
:102D6000110040F27C10C2F200000CA90022FEF714
:102D70007BFC28B1EFF3108072B600BFFEE700BF06
:102D800040F27C10C2F200000CA90422FEF76CFC99
:102D900020B1EFF3108072B6FEE700BF40F27C1066
:102DA000C2F200000CA90822FEF75EFC20B1EFF38E
:102DB000108072B6FEE700BF40F27C10C2F2000045
:102DC0000CA90C22FEF750FC20B1EFF3108072B674
:102DD000FEE700BF4FF40050079040F27C10002443
:102DE000C2F2000002A90694CDE90444CDE90244F0
:102DF0000994FEF755F928B1EFF3108072B600BFC1
:102E0000FEE700BF40F27C15C2F200052846FEF73F
:102E1000FDFB40F2C410C2F200004FF080411323CA
:102E20000594CDE90344CDE90C4445F6BF5280E852
:102E30001600C0E903348461FEF798F920B1EFF37E
:102E4000108072B6FEE700BF4FF48050029040F24F
:102E5000C410C2F2000002A9FEF75EFA20B1EFF33F
:102E6000108072B6FEE700BF40F2C418C2F200083C
:102E70000CA94046FEF73AF920B1EFF3108072B684
:102E8000FEE700BF284600210024FEF787FD284604
:102E90000421FEF783FD28680821446384632846E3
:102EA000FEF77CFD28460C21FEF778FD2868C463F8
:102EB00004644046FEF7F8F940F2A00AC2F2000AA4
:102EC00040F20C200AF13C01C2F200000B22FFF795
:102ED00011FA58464FF400510122FDF7FFFC40F271
:102EE0000000C2F20000C0694FF07C5100F048FCC5
:102EF000D8F800100190B14204D14FF46054FDF7AE
:102F0000A1FE03E04FF4E064FDF788FE59F8141CBD
:102F100011EA040218BF0122D8F80C10D8F8047086
:102F200000FA02F5084600F0AFFB4FF07E5100F0CA
:102F300001FA0646384600F0A7FB4FF07E5100F03C
:102F4000F9F90146304600F01BFC0646284600F021
:102F50009BFB0146304600F085FA48F20001C4F2BE
:102F60007751CAF8300000F00BFC014640F6DB70E8
:102F7000C4F2C90000F076FA9AF80010CAF83400DA
:102F800011B1FFF7ABFD00BFDAF8189014E000BFF5
:102F90004DF20A713046C3F6234100F0CBF93946B1
:102FA000054600F04CFA002818BF2F469AF800009A
:102FB000CAF82C700028E4D14846002100F038FA05
:102FC0000246002858464FF4005118BF0122FDF771
:102FD00085FC9AF80100022840F091800020DAE98F
:102FE0000A658AF85100CAF84D00CAF849004FF442
:102FF000D570AAF84700304600214FF0000800F0D5
:103000001EFA38B92846002100F019FA10B9DAE999
:10301000021043E03046002100F003FA60B9284670
:10302000002100F0FEF938B9DAE9020280F000412F
:1030300082F0004032E000BF3046002100F0FFF98E
:1030400050B92846002100F0ECF928B9DAE902105D
:1030500080F0004022E000BF30460021002600F052
:10306000E0F900284FF0020440F0B8802846002123
:1030700000F0E5F900284FF000024FF000054FF096
:1030800000004FF000074FF000034FF0000C4FF02E
:1030900000010FD1DAE9021081F000414FEA112C52
:1030A0000B0C0F0E050A020C060E0A24CAF8491072
:1030B000CAF84D0061441944394408442844104476
:1030C00030445538C0430AEB040181F8470040F210
:1030D0000000C2F20000007801280ED140F20C205E
:1030E0000AF14701C2F200000B22FFF70BFA40F28F
:1030F0000000C2F2000080F800808AF80180FDF72D
:10310000F3FBDAF83810401A4DF2C141C0F2010168
:1031100088426DD2DAE906900199DAF8288000F049
:103120002FFB06464846314600F0F6FB40F2000110
:10313000C2F200010F6A394600F094F90546CAF858
:1031400020003046494600F0F5F8394600F08AF98B
:103150000746CAF824004046294600F062F958B9EB
:103160004DF20A714046C3F6234100F0E3F82946C8
:10317000064600F064F90FE04046294600F058F991
:1031800068B94DF20A714046CBF6234100F0D2F8FF
:103190002946064600F03EF9002818BF3546DAF801
:1031A0002C6039463046CAF8285000F03AF9002819
:1031B0003FF4EEAE3046394600F03AF900287FF48D
:1031C000F5AE4DF20A713046CBF6234100F0B2F86D
:1031D0003946054600F01EF9E5E600BF002200254D
:1031E0000020002700234FF0000C002162E700BF01
:1031F0000020CAE90600FFF771FC00002DE9F04F3E
:1032000081B0DDE90A891F46144600F085FB0546BA
:103210002046294600F0B4FA40F2900BC2F2000BAF
:10322000DBE9006482463846494600F0A9FA29469F
:1032300000F0A6FA214600F07DF8044640464946D3
:1032400000F09EFA314600F09BFA214600F072F839
:103250000146CBF80400504600F06CF8002104460B
:1032600000F0EDF800262546C4F2C826002818BF55
:1032700000252846314600F0E2F8002808BF354610
:103280002846214600F048FBCBF80000284600F015
:10329000DFF901B0BDE8F08F2DE9F04F81B0DDE935
:1032A0000A891F46144600F037FB0546204629468A
:1032B00000F066FA40F2900BC2F2000BDBE9026408
:1032C00082463846494600F05BFA294600F058FA33
:1032D000214600F02FF804464046494600F050FAD7
:1032E000314600F04DFA214600F024F80146CBF8B3
:1032F0000C00504600F01EF80021044600F09FF834
:1033000000262546C4F2C826002818BF00252846F6
:10331000314600F094F8002808BF3546284621467B
:1033200000F0FAFACBF80800284600F091F901B055
:10333000BDE8F08F90EA010F48BF81F0004100F135
:10334000F282421A3CBF801A89184FEAD052A2EB8F
:10335000D1534FF07F4C1CEA410F18BF9CEA026F1B
:1033600000F03B804FF0004C4CEA00204CEA012179
:1033700021FA03FC10EB0C0C1ED202F1FF325FEAC3
:103380001C2040EBC25038BF70471CF07F0F4FEA43
:10339000400C18BFBCF17F4F38BF7047C3F120030A
:1033A000994008BF20F00100BCF17F4F38BF704743
:1033B000A0F1C04000F0ABBA4FEA3C00000A40EB7D
:1033C000C25028BF1CF0FF0F4FEA400CE6D018BFD8
:1033D000BCF17F4F38BF7047EAE79CEA026F05D027
:1033E00010EA5C0F08BF00F00040704710B500F015
:1033F00048FA00BF64FBBE3E10B500F0F5F80CBF04
:103400000120002010BD10B500F0EEF814BF01201F
:10341000002010BD10B500F04BF98CBF012000203A
:1034200010BD10B500F044F92CBF0120002010BDE4
:1034300010B500F071F994BF0120002010BD10B547
:1034400000F06AF934BF0120002010BD401058BFC1
:10345000C0F14040491058BFC1F140418142EFF3F3
:10346000008070474FF47F0C1CEAD0121EBF1CEA8C
:10347000D11392EA0C0F93EA0C0F00F0858090EACA
:10348000010F48BF42F4807240F4000C41F4000088
:103490002CF07F4120F07F4000B5A2EB0302814277
:1034A0000FF2081CACEB504E9EF800E0C0F100009B
:1034B0004FEA4E0E00FB0EFC38BF49004FEA2C1CB1
:1034C0000CFB0EF34FEACE1E0EEB635E4FEA112C9F
:1034D0000EFB0CFC4FEAC1214FEA1C5300FB031109
:1034E00002F5FA024FEA112C0EFB0CFC4FEA0131F7
:1034F0004FEADC4C00FB0C1142EB2242C14228BFD8
:1035000009184CEB03335DF804EB10EB410143EB7E
:10351000C250B2F57C0F38BF704729D512F0F00FBA
:103520001CBF00F1C04000F0004070470081828362
:103530008485868788898B8C8D8E8F9192939596C2
:1035400097999A9C9D9FA0A2A3A5A7A8AAACAEB04C
:10355000B2B3B5B7B9BCBEC0C2C5C7C9CCCED1D451
:10356000D7D9DCDFE2E6E9ECF0F3F7FAFE00000081
:103570004FEA400C0CF1807CBCF17E4F28BF7047B5
:10358000B0F1C04000F0C3B90CEAD11390EA010FCA
:1035900048BF42F48072624538BF634507D213F4D6
:1035A0007F0F16D080EA010000F00040704710B590
:1035B00000F067F9097EFC3E00F005B880EA0100E2
:1035C00000F00040704780EA010000F0004000F089
:1035D0009EB912F47F0F04BF0248704780EA0100D1
:1035E00000F095B90000C07F50EA010C00F1138093
:1035F0001CF5000F58BFBCF5000F01D4884270477E
:1036000007D710F5000F58BF11F5000F15D48842E9
:103610007047894270471CF5000F04D5BCF5000FB8
:10362000F7D5814270474FF0807C1CEB400F38BFCC
:103630001CEB410F01D28142704710B500F021F917
:10364000922449004FF000504FF08051FFF7FEBE2A
:1036500041000B0ED3F19E0208D950F400034FEA4B
:10366000032323FA02F048BF4042704710B500F030
:1036700008F900BF49922480002070476FF0004293
:1036800082EA200070470000B0FA80F310FA03F2DB
:10369000C3F19D030AD0D90501EB1220530638BFB0
:1036A000704700F1010008BF20F0010070470000E2
:1036B00050EA010C00F113801CF5000F58BFBCF557
:1036C000000F01D48842704707D710F5000F58BF8C
:1036D00011F5000F15D488427047894270471CF5D8
:1036E000000F04D5BCF5000FF7D5814270474FF0AD
:1036F000807C1CEB400F38BF1CEB410F01D2814294
:10370000704710B500F0BDF8922449004FF080508A
:103710004FF00051FFF79ABE50EA010C00F1138000
:103720001CF5000F58BFBCF5000F01D4884270474C
:1037300007D710F5000F58BF11F5000F15D48842B8
:103740007047894270471CF5000F04D5BCF5000F87
:10375000F7D5814270474FF0807C1CEB400F38BF9B
:103760001CEB410F01D28142704710B500F089F87F
:10377000922449004FF000504FF08051FFF766BE91
:103780004FF47F0C1CEAD0121EBF1CEAD11392EA40
:103790000C0F93EA0C0F00F0478090EA010F48BF2E
:1037A00042F480724FF0004C4CEA00204CEA0121B8
:1037B00002EB0302A0FB0113A2F50002002918BFCF
:1037C00043F001035B0028BF4FEA330342EB224280
:1037D0005FEA132C4CEBC2502EBFBCEB436FB2F52B
:1037E0007C0F70474FEA036CBCF1004F08BF20F01C
:1037F0000100B2F57C0F38BF70470BD582F0FF0295
:1038000012F5803FC8BF704700F1C040D8BF00F03C
:103810000040704700F5000C5FEA4C0C48BF704751
:10382000B0F1C04000F073B80CEAD11390EA010F78
:1038300048BF42F48072624538BF634504D280EAD3
:10384000010000F00040704710B500F01AF800BF0A
:103850008900013E00F007B800F009B85FEA410CAA
:103860005FEA1C6C08D080EA010000F050B85FEA03
:10387000400C5FEA1C6CF6D14FF00040A0F58000D0
:1038800070470EF1020E2EF0030E5EF8044B244238
:1038900004D44FEA4102B2F17F4F11D84FEA4003FE
:1038A000B3F17F4F0CD80ED14FEAD07C0CEB4C0C0F
:1038B0000CF1020CB2F17F4F08BF4CEBD17C04E05D
:1038C0004FF0080C01E04FEAD17C0CEB4C0324FADA
:1038D00003F404F00704B4F1040C06D20EEB840CDC
:1038E000BDE810404CF0010C6047DFE80CF0070821
:1038F00002024FF00040A0F5800010BD08464200D3
:1039000018BFD2F1807288BF00F0004010BDFF21C7
:1039100041EAD050C005704790EA010F48BF81F0DE
:1039200000413FF50EAD421A04D882F00042A0EBF0
:10393000020011444FEAD052A2EBD1534FF07F4C1A
:103940001CEA410F18BF9CEA026F4AD04FF0004CAE
:103950004CEA00204CEA012121FA03FCB0EB0C0CEC
:103960000FD412F0FE0F36D05FEA4C001DD50012C6
:1039700040EBC25038BF70471CF03F0F18BF704774
:103980000BE05FEA1C20A2F1010240EBC25038BFFD
:1039900070471CF07F0F18BF7047C3F12003994098
:1039A00014BF401E20F0010070474FEA1223800828
:1039B00008BF7047B0FA80FCA2EB0C02CCF1280CD7
:1039C00060FA0CF093EA122F04BF00EBC25070476C
:1039D0004FEAC3707047130A5FEADC1008BF7047F4
:1039E000F6E79CEA026F04D010EA5C0F08BF0020E3
:1039F000704710B5FFF745FF40DFF63E81F000400D
:103A000070470000000000000000010203040607E8
:103A1000080900000000010203040102020304057A
:103A2000060708090A0B0C0D0E0F1010503A00087B
:103A3000000000203000000050010008803A00081B
:103A4000300000202808000070010008000000007D
:103A5000010000006B1F0D416B911D4384EA8E41F4
:103A60006B1F0D416B911D4384EA8E414C37893E9B
:103A7000295C0F3D010000001000000000127A00D8
:04000005080000ED02
:00000001FF
